{"abi":[{"type":"constructor","inputs":[{"name":"_router","type":"address","internalType":"address"},{"name":"_weth","type":"address","internalType":"address"},{"name":"_usdc","type":"address","internalType":"address"},{"name":"_tee","type":"address","internalType":"address"}],"stateMutability":"nonpayable"},{"type":"function","name":"USDC","inputs":[],"outputs":[{"name":"","type":"address","internalType":"address"}],"stateMutability":"view"},{"type":"function","name":"WETH","inputs":[],"outputs":[{"name":"","type":"address","internalType":"address"}],"stateMutability":"view"},{"type":"function","name":"router","inputs":[],"outputs":[{"name":"","type":"address","internalType":"contract ISwapRouter"}],"stateMutability":"view"},{"type":"function","name":"settle","inputs":[{"name":"buyOrderId","type":"bytes32","internalType":"bytes32"},{"name":"sellOrderId","type":"bytes32","internalType":"bytes32"},{"name":"amountIn","type":"uint256","internalType":"uint256"},{"name":"amountOutMin","type":"uint256","internalType":"uint256"}],"outputs":[],"stateMutability":"nonpayable"},{"type":"function","name":"teeWallet","inputs":[],"outputs":[{"name":"","type":"address","internalType":"address"}],"stateMutability":"view"},{"type":"event","name":"Settled","inputs":[{"name":"buyId","type":"bytes32","indexed":true,"internalType":"bytes32"},{"name":"sellId","type":"bytes32","indexed":true,"internalType":"bytes32"},{"name":"amountIn","type":"uint256","indexed":false,"internalType":"uint256"},{"name":"amountOut","type":"uint256","indexed":false,"internalType":"uint256"},{"name":"blockNumber","type":"uint256","indexed":false,"internalType":"uint256"}],"anonymous":false},{"type":"error","name":"NotTee","inputs":[]},{"type":"error","name":"SwapFailed","inputs":[]}],"bytecode":{"object":"0x610100604052348015610010575f80fd5b5060405161068538038061068583398101604081905261002f9161006c565b6001600160a01b0393841660805291831660a052821660c0521660e0526100bd565b80516001600160a01b0381168114610067575f80fd5b919050565b5f805f806080858703121561007f575f80fd5b61008885610051565b935061009660208601610051565b92506100a460408601610051565b91506100b260608601610051565b905092959194509250565b60805160a05160c05160e05161056761011e5f395f818160dd015261013101525f81816073015281816101910152818161024a01526102f301525f818160b6015261032201525f81816101040152818161021b01526102b801526105675ff3fe608060405234801561000f575f80fd5b5060043610610055575f3560e01c806314ec470a1461005957806389a302711461006e578063ad5c4648146100b1578063beed9c75146100d8578063f887ea40146100ff575b5f80fd5b61006c6100673660046104a0565b610126565b005b6100957f000000000000000000000000000000000000000000000000000000000000000081565b6040516001600160a01b03909116815260200160405180910390f35b6100957f000000000000000000000000000000000000000000000000000000000000000081565b6100957f000000000000000000000000000000000000000000000000000000000000000081565b6100957f000000000000000000000000000000000000000000000000000000000000000081565b336001600160a01b037f0000000000000000000000000000000000000000000000000000000000000000161461016f57604051633e23f97160e01b815260040160405180910390fd5b6040516323b872dd60e01b8152336004820152306024820152604481018390527f00000000000000000000000000000000000000000000000000000000000000006001600160a01b0316906323b872dd906064016020604051808303815f875af11580156101df573d5f803e3d5ffd5b505050506040513d601f19601f8201168201806040525081019061020391906104cf565b5060405163095ea7b360e01b81526001600160a01b037f000000000000000000000000000000000000000000000000000000000000000081166004830152602482018490527f0000000000000000000000000000000000000000000000000000000000000000169063095ea7b3906044016020604051808303815f875af1158015610290573d5f803e3d5ffd5b505050506040513d601f19601f820116820180604052508101906102b491906104cf565b505f7f00000000000000000000000000000000000000000000000000000000000000006001600160a01b031663414bf3896040518061010001604052807f00000000000000000000000000000000000000000000000000000000000000006001600160a01b031681526020017f00000000000000000000000000000000000000000000000000000000000000006001600160a01b031681526020016101f462ffffff168152602001336001600160a01b0316815260200142603c61037891906104f5565b8152602080820188905260408083018890525f606093840152805160e086811b6001600160e01b031916825285516001600160a01b03908116600484015293860151841660248301529185015162ffffff16604482015292840151821660648401526080840151608484015260a084015160a484015260c084015160c4840152929092015190911660e4820152610104016020604051808303815f875af1158015610425573d5f803e3d5ffd5b505050506040513d601f19601f82011682018060405250810190610449919061051a565b905083857fbfae5bf361cc6faa694efa73157c35dc1b5beae4f6c81a087891c06976a9dbb2858443604051610491939291909283526020830191909152604082015260600190565b60405180910390a35050505050565b5f805f80608085870312156104b3575f80fd5b5050823594602084013594506040840135936060013592509050565b5f602082840312156104df575f80fd5b815180151581146104ee575f80fd5b9392505050565b8082018082111561051457634e487b7160e01b5f52601160045260245ffd5b92915050565b5f6020828403121561052a575f80fd5b505191905056fea26469706673582212209cc1d4d956710cb61365a8d074b505a4ff717c009b8da112136e94b73c2be24c64736f6c63430008180033","linkReferences":{}},"methodIdentifiers":{"USDC()":"89a30271","WETH()":"ad5c4648","router()":"f887ea40","settle(bytes32,bytes32,uint256,uint256)":"14ec470a","teeWallet()":"beed9c75"},"id":18}